:10000000908301200D510000B1170400F950000049
:10001000F9500000F9500000F9500000F9500000BC
:10002000000000000000000000000000D9520000A5
:10003000F9500000000000006D520000F95000006F
:10004000F5540000F5540000F5540000F55400008C
:10005000F5540000F5540000F5540000F55400007C
:10006000F5540000F5540000F5540000F55400006C
:10007000F5540000F5540000F5540000F55400005C
:10008000F5540000F5540000F5540000F55400004C
:10009000F5540000F5540000F5540000F55400003C
:1000A000F5540000F5540000F5540000F55400002C
:1000B000F5540000F5540000F5540000F55400001C
:1000C000F5540000F5540000F5540000F55400000C
:1000D000F5540000F5540000F5540000F5540000FC
:1000E000F5540000F5540000F5540000F5540000EC
:1000F000F5540000F5540000F5540000F5540000DC
:10010000F5540000F5540000F5540000F5540000CB
:10011000F5540000F5540000F5540000F5540000BB
:10012000F5540000F5540000F5540000F5540000AB
:10013000F5540000F5540000F5540000F55400009B
:10014000F5540000F5540000F5540000F55400008B
:04015000F554000062
:04015400FFFFFFFFAB
:100158007BB972B90029BEBF00204FF0004106E00C
:1001680008BF00281CBF6FF000414FF0FF3000F0BF
:1001780057B8ADF1080C6DE904CE002909DB002B56
:100188001ADB00F04FF8DDF804E0DDE9022304B0E3
:100198007047404261EB4101002B1BDB00F042F845
:1001A800DDF804E0DDE9022304B0404261EB4101DF
:1001B800524263EB43037047524263EB430300F040
:1001C80031F8DDF804E0DDE9022304B0404261EBD8
:1001D80041017047524263EB430300F023F8DDF816
:1001E80004E0DDE9022304B0524263EB43037047A5
:1001F80053B94AB9002908BF00281CBF4FF0FF3186
:100208004FF0FF3000F00CB8ADF1080C6DE904CEEA
:1002180000F008F8DDF804E0DDE9022304B07047D7
:10022800704700BF2DE9F04786468C460846089E71
:10023800154674461946002B40F0C1808542B2FA33
:1002480082F245D94AB1C2F1200300FA02FC954076
:1002580094402EFA03F343EA0C0C4FEA154EA8B269
:10026800230CBCFBFEF80EFB18CC08FB00F943EA94
:100278000C43994528D9EB1808F1FF3704D2994562
:1002880002D9A8F102072B44A3EB0903A4B2B3FBDC
:10029800FEFC0EFB1C330CFB00F044EA0344A042B6
:1002A80014D92C190CF1FF3304D2A04202D9ACF1B5
:1002B80002032C44241A43EA07401EB1D440002309
:1002C80034607360BDE8F0874746DDE76346F1E7D1
:1002D80092BB431B01214FEA154EAFB2200CB3FB72
:1002E800FEFC0EFB1C330CFB07F840EA0343984561
:1002F80061D9EB180CF1FF3004D2984502D9ACF162
:1003080002002B44A3EB0803A4B2B3FBFEFC0EFBD4
:100318001C330CFB07F744EA0344A7424DD92C19B8
:100328000CF1FF3304D2A74202D9ACF102032C44EA
:10033800E41B43EA0040C0E7C2F120039540944023
:1003480020FA03F12EFA03F34FEA154E9040AFB2AC
:100358000343B1FBFEFC0EFB1C10190C0CFB07F849
:1003680041EA0041884522D969180CF1FF3004D2CE
:10037800884502D9ACF102002944A1EB08019BB2DF
:10038800B1FBFEFC0EFB1C110CFB07F743EA014313
:100398009F420ED9EB180CF1FF3104D29F4202D9CB
:1003A800ACF102012B44DB1B41EA004193E76046B4
:1003B800E3E76146F7E76046A4E76346B8E78342A8
:1003C80006D916B9002108467CE7C6E900E0F9E736
:1003D800B3FA83F78FB9834201D3724508D8BEEBCD
:1003E800020460EB030301209C461EB9002169E763
:1003F8003846FAE7C6E9004CF8E7C7F1200CBB40DD
:100408000EFA07F522FA0CF42EFA0CF1BA401C4346
:1004180020FA0CF3B8404FEA144901431FFA84FE4E
:10042800B3FBF9F809FB18300B0C08FB0EFA43EA8A
:1004380000439A4540D9E31808F1FF3004D29A45A1
:1004480002D9A8F102002344A3EB0A0389B2B3FB43
:10045800F9F809FB183308FB0EFE41EA03418E4503
:100468002CD9611808F1FF3304D28E4502D9A8F1BE
:100478000203214443EA0040A1EB0E01A0FB0298CD
:100488004145CE46434602D306D14D4504D20138F4
:10049800B9EB020E68EB0403002EA7D0B5EB0E02F1
:1004A80061EB030101FA0CFC22FA07F3F9404CEA6C
:1004B8000303C6E9003199E74046C5E74346D9E753
:1004C80010F8012B11F8013B012A28BF9A42F7D0F6
:1004D800D01A7047034611F8012B03F8012B002AA4
:1004E800F9D17047034613F8012B002AFBD1181ADB
:1004F8000138704700000000F0B583B0624D00AFCE
:10050800D5F86831996811F001011DD140F6034012
:100518003A1D06F0C5FB0446002840F0B0807C6810
:10052800E3681B786BB908F073FB05F1D403D3E8D3
:10053800AF2F02F00902D3E8EF1FC3E8E02F00282D
:10054800F9D120460FF01CFF002141F203003A1DAB
:1005580006F0A6FB0446002840F091807B684B4ECD
:10056800DA68D2F80100D2F8051003C618460FF071
:1005780007FF214641F201003A1D06F091FB0446AF
:1005880000287CD17868C3685A7885F870205A8822
:10059800A5F872201A7985F87120B3F80720A5F814
:1005A8007420B3F80530A5F876300FF0E9FE21463F
:1005B80041F202003A1D06F073FB044600285ED1A2
:1005C800D7F804C0DCF80C20531C413234461868B4
:1005D8005968083303C493422646F7D160460FF0A2
:1005E800CFFE08F0AFFC0446002848D195F88A30C1
:1005F800990610D40221264A264841F0D5F995F8E3
:100608007C305A064AD40121234A224841F0CCF9C9
:100618006FF0120433E0072140F6334006F0F2FA97
:100628000646002800F0418107210C3010F054F8EC
:10063800452303702023C0F802408471447004717C
:100648002246C370314640F6334006F029FB044683
:10065800A8B9012140F6314006F0D4FA0646002830
:1006680000F0238101210C3043F003FC224631467F
:1006780040F6314006F014FB04460028BFD020465F
:100688000C37BD46F0BD00BF0000002078000020F8
:100698008BFA0500B09A0500B9FA0500002142F26C
:1006A80003003A1D06F0FCFA04460028E7D17B68EF
:1006B800A34EDA68D2F80100D2F8051003C618462E
:1006C8000FF05EFE214642F202003A1D06F0E8FAFB
:1006D80004460028D3D17C68E368B3F8012091B2BE
:1006E80049B1D97839B1A5F80421DA78114606F16B
:1006F800280058F0CDFC20460FF042FE95F87C60AB
:1007080016F0200618D1022140F66D4006F07AFA5C
:100718000446002800F0C98002210C300FF0DCFFED
:100728000123214603704670324640F66D4006F0BC
:10073800B7FA04460028A2D195F89C301B0712D5B9
:10074800002142F21C003A1D06F0AAFA04460028CD
:1007580095D17868C368D3F80120D3F80530C5E986
:1007680038230FF00DFE95F8D8309E0621D538466F
:10077800B91C06F00DFB0446002880D1042142F282
:10078800240006F03FFA0646002800F08E80042177
:100798000C300FF0A1FF3B88224603807B8831464E
:1007A800438042F2240006F07BFA044600287FF4D6
:1007B80066AF95F8D8305C0610D5002142F22A00C1
:1007C8003A1D06F06DFA044600287FF458AF7868A1
:1007D800C3685B7885F820310FF0D2FD082142F21A
:1007E800010006F00FFA044600285ED008210C30FC
:1007F8000FF072FF95F8D81040F2022311F0400F65
:1008080008BF0323024688074CBF43F02C0043F07F
:100818000C008B0695F8D93048BF40F0400013F023
:10082800090F95F8A23018BF40F4006003F00603E2
:10083800CE0748BF40F01000062B08BF40F4C07038
:10084800002141F0D7F82146002242F2010006F0CB
:1008580027FA044600287FF412AF95F87C30B5F8E3
:100868000411980624D4C9B941F205003A1D06F0CE
:1008780017FA044600287FF402AFB5F804317C6803
:100888004BB9E368B3F80120A5F804219A882D48EC
:10089800114658F0FDFB20460FF072FD082140F686
:1008A800014006F0AFF9044660B96FF06804E6E667
:1008B8000029F3D10121244A244841F075F86FF04A
:1008C8000404DCE608210C300FF006FF95F8D83058
:1008D8000246D90729D44FF000511D4841F08AF843
:1008E8002146002240F6014006F0DAF904460028C5
:1008F8007FF4C5AE01463A1D4FF6014006F0D0F927
:1009080050B3144A0221114841F04EF807F0BCFDDB
:10091800044600287FF4B3AE09F0D8FD0446002849
:100928007FF4ADAE07F00EF8A9E603A1D1E9000106
:10093800D4E700BFAFF30080908800020080002059
:10094800D800002008010020DDFA0500B09A050053
:100958001088000200FB05007B686D46DC688AB0E1
:10096800B4F80130032B96BF424A434952F823108A
:100978006A46D3614FF4007340481384404BC2E980
:10098800050142F8103F4FF413513E4841F027F853
:10099800B4F80120AD46022AB4F8033048D1052B3B
:1009A80046D8394A52F823106D468AB06A46D36150
:1009B8004FF4007335481384314BC2E9050142F8FE
:1009C800103F4FF413512F4841F009F8AD466379B1
:1009D800A679032B98BF2E4AB4F80750D4F809001B
:1009E8006C468CB094BF52F8231023496A46C2E97A
:1009F80007364FF40073DFF89CC09385264BC2E995
:100A080005C1C2E909504FF4735142F8103F1D481F
:100A180040F0E5FFA54678680FF0B2FC00214FF6DC
:100A280002403A1D06F03CF9044618B11B4A69E732
:100A38001149B9E778681A4DC368B3F80130A5F8C9
:100A4800C1300FF09DFC95F8C1305B077FF55EAFB4
:100A580021464FF603403A1D06F022F908B1114A23
:100A680050E77868C3685B7885F8C0300FF088FC79
:100A78004CE700BF48A00500E0F8050024FB05008E
:100A880004000001B09A050030A005003DFB0500F8
:100A980020A0050055FB05000700000182FB0500AA
:100AA80000000020ABFB05002DE9F04F00278BB0BC
:100AB8000D469346994604468DF81970002800F0B3
:100AC8005A82002900F05782BA462B78ADF81CA04C
:100AD8008DF818A0062B00F2D381DFE813F0070089
:100AE8001200D10112003C003C00D60129462046E4
:100AF8003EF051FA0746002840F02D824FF00103DE
:100B08002B702046D4E90412149B3FF064F9071EA9
:100B180040F3BB8103232B7007AB676401930DF18E
:100B28001903009339460022206906AB3EF0C7F945
:100B3800071EC0F2AA819DF81820531EDBB20A2BAB
:100B480064D8B44A0021D25C04F17800043A58F021
:100B580053FD04232B70BBF1100F9DF8183000F0E3
:100B680093809B4500F082801A1F032A00F29A8026
:100B7800ABF10402032A4DD8B9F1000F00F09F80B1
:100B8800BDF81C204A4578D12E46ABF11002D2F1AF
:100B9800000848EB0208002B73D12B78043B012B8B
:100BA80000F28F802B78042B09BF9DF81930CDE90E
:100BB80008AAF371BDF81C3002BFB3800023CDE949
:100BC800083303238DF81A3000238DF81B30ADF855
:100BD8001E303378052B00F089800DF11E03019338
:100BE8000DF11B0300933246616C20690DF11A0365
:100BF8003EF065F9071E7FDCB54203D03378052B3C
:100C080008BF2B70002F80F2D48062E00D2AA0D19B
:100C180001239FE704F174064FF0000800228DF8C5
:100C28001A30023BCDE908228DF81B20ADF81E20B2
:100C38000B2B46D801A252F823F000BF6B0E000020
:100C4800DB0B0000210E0000210E0000210E000029
:100C5800210E0000CB0C00006B0E0000CB0C000036
:100C68006B0E0000CB0C00006B0E0000B9F1000FFA
:100C780021D0BDF81C204A451DD04FF0000804F1D2
:100C88007406032B8ED0C9E7B9F1000F0FD0BDF859
:100C98001C204A4506D1102B7FF476AF2E464FF024
:100CA8000108BBE74FF0000804F1740673E72E460D
:100CB8004FF001086FE72E464FF00108E1E72E4696
:100CC800AAE7B54203D03378052B08BF2B706FF025
:100CD8000307AB78062B00F23281DFE813F04001FE
:100CE800D9003001110130013001EA00B388ADF8B4
:100CF8001E30F3798DF81B3004F174030493D6E9A0
:100D08000732D318029373690393DDE902329342E1
:100D180096F8242034BF002301233AB1216F00291B
:100D28005CD10022F260328286F82420DDE90221BB
:100D38008A422DD2D6E9072111440022F2614FF0F0
:100D48000502327072693162521A61698A42A8BF1B
:100D58000A46002A1CDD2046149B21693FF04FF902
:100D6800071E4EDB23697269C6E90637336A3B44BE
:100D7800276F934234BF002301234FB131462046E9
:100D880096F824200293B847029B0746002836D1DC
:100D9800002BB4D0002333709DF81B304BB1012BCE
:100DA80014BF052304238DF82630BDF81E30ADF896
:100DB80024309DF82630043B032B09D84FF0060356
:100DC8002B704FF00103AB7008AB03CBA064E16458
:100DD800294620463EF0F5F800277AE7316B29B915
:100DE80004998E4204BFD4F8B0103163276F31469E
:100DF80020460593B847059B0746002891D0002F49
:100E0800C8DAB5423FF465AF3378052B7FF461AF9C
:100E18002B705EE7D8D605000DF11E0301930DF186
:100E28001B0300933246616C20690DF11A033EF0F2
:100E380046F8071E7FF7E0AE9DF81A305A1F012AC0
:100E480007D9B542B5D03378052BB2D105232B701D
:100E5800AFE701338DF82630BDF81E30ADF82430E9
:100E6800EFE70DF11E0301930DF11B0300933246CA
:100E7800616C20690DF11A033EF021F80746BBE6C4
:100E88004FF000086FF0090723E74FF0000820E74C
:100E980094F86C30DB0724D4EB7843F00203EB7052
:100EA80094F86C3043F0010384F86C304FF006037B
:100EB800AB7094F84E2004F14803D4E902013EF0E7
:100EC80011FE071E19DA294620463DF0EAFF2B7865
:100ED800012B01D100232B70294620463EF071F8E2
:100EE80039E02B78012B01D100232B7029462046AD
:100EF8003EF067F86FF064072DE003236766AB7078
:100F0800666EA168324620463EF062FF07462946D3
:100F180020463DF0C6FFBE4285F802A01FD12B78BF
:100F28002946012B204608BF85F800A03EF049F865
:100F38000027B8F1000F0ED185F80080C5E52B78A1
:100F48002946012B08BF0023204608BF2B703EF01E
:100F580038F86FF0090738460BB0BDE8F08F2B78EA
:100F68002946012B08BF85F800A020463EF029F845
:100F7800002FDEDAEFE74FF0FF37ECE72DE9F0431B
:100F880007461546614A88461068516885B001AB26
:100F980003C312891A80002F00F0B480002D00F0DE
:100FA800B180A868002800F0AD80AE691EB16B69F9
:100FB800002B00F0A780FFF795FAB0F5803F80F08E
:100FC800A1806B7B00F10C0413B3D5F81090B9F134
:100FD800000F00F09780D9F80C00002800F09280EC
:100FE800D9F8183023B9D9F81430002B40F08A808A
:100FF800FFF778FAB0F5803F80F08480D9F8143094
:101008002044B3F5803F00F102007BD21844841CD1
:10101800686930B1FFF766FAB0F5803F72D20230E6
:1010280004443EB13046FFF75DFAB0F5803F69D21F
:1010380002300444B8F1040F04DC6FF0010005B07D
:10104800BDE8F08338461023214600F8013B3EF006
:1010580056FB002854DD013026184645EDDC297B77
:10106800AB79002908BF0421003B18BF01236A7B24
:101078003C185B0062B1286943F00403C2791AB1D5
:10108800D20002F018021343027A0AB143F0200397
:101098006A690AB143F08003AA690AB143F04003C0
:1010A800AA888DF80B3052BAADF80C208DF80A10CA
:1010B80001AB03CB1B882060238161600A34204682
:1010C800A9683EF0C7FB6B7B044463B12B692046DB
:1010D800D9683EF0BFFB2B69044420469A8A996977
:1010E8003EF0D1FB0444696919B120463EF0B2FBD9
:1010F8000444A96911B120463EF0ACFB30469EE796
:101108009DD1A9E74FF0FF3099E700BF7C9C05000F
:101118002DE9F0470E46DDE9089815461F460446B6
:10112800002800F09A808369002B00F096805B68A5
:10113800002B00F09280002211463EF047FAC207C9
:1011480016D43DB942F2B32540F25B73B9F1000FF2
:1011580008BF1D46A0693B46D0F804A02A46314680
:101168000068D04740B90146012220463EF02EFAD9
:10117800B9F1000F02D10020BDE8F08700236363B6
:10118800E3694BB926F038FA01283CD1B8F1000FD1
:1011980035D1E269002A45D04FF48061E0694BF00F
:1011A8004CFC3149E0694DF0B5F9E0692F494DF043
:1011B800B4F9206A002848D1E0694BF022FC20628B
:1011C80008B32146206A4DF0B3F92146206A4DF054
:1011D800B2F9D4F8B01011B1206A4BF0D1FB022259
:1011E800002120463EF0F2F9206A25F0EDFE0128A4
:1011F800C1D00022022120463EF0E8F903E0204653
:10120800C0470128C5D0206A30B100214BF046FC08
:10121800831E012B24D9606320463EF04CFF6FF0FB
:101228000500A9E7114620463EF0D0F9430704D44B
:101238004BF0BCFC4BF0ECFCE061E0690028E2D02C
:10124800002211464BF07FFBA6E707494DF068F9ED
:101258000649206A4DF068F9B3E74FF0FF308BE795
:101268006FF0640088E700BFC1FE0300EBFE0300D7
:1012780010B504464CF0B2FD4BF0CAFCE06120B951
:101288000B483EF0C4FF002010BD002201214BF0A6
:101298005AFB012340F24B220649E0694BF06BFCF4
:1012A8000128F1D0014604483EF0B1FFEBE700BF4A
:1012B800E3D60500C9DB0500FBD6050008B570B903
:1012C80012494FF43873124A12483FF007FA12488D
:1012D8003FF004FA4FF438710D483FF0F8F903680D
:1012E80063B90E4940F2E123094A0A483FF0F6F98A
:1012F80009483FF0F3F940F2E121EDE70C33D3E878
:10130800AF0F084100F0010008BD00BF55D7050028
:1013180026D705005BD7050078D705007BD70500E1
:1013280073B516460D461A46044608B300680028E9
:101338001EDBE9B1002E1BDD14213EF0EDFE206816
:10134800002332462946CDE9003310F0DDF80028A5
:101358000CDA58F061F9094B19580B290BD00848D9
:101368003EF055FF6FF0070002B070BDFCD1F9E701
:101378004FF0FF30F8E76FF00600F5E70C000000CB
:1013880089D7050073B516460D461A46044610B3AC
:10139800006800281FDBF1B1002E1CDD15213EF08E
:1013A800BBFE20680023602E32462946A8BF602273
:1013B800CDE900330FF03EFE00280ADA58F02CF988
:1013C800084B19580B2909D007483EF020FF6FF049
:1013D800070002B070BD4FF0FF30FAE76FF006006B
:1013E800F7E700BF0C000000A0D705002DE9F04189
:1013F8000D4616461F46044686B000284ED00029E2
:101408004CD04FF002081422002101A858F0F4F83B
:1014180073BAADF80080ADF802302946404601AAFB
:1014280042F0C5FE0128014608D029461E483EF074
:10143800EEFE6FF0070006B0BDE8F08106224046D8
:101448000FF0C4FB0028206005DA58F0E5F8174BC8
:1014580019581748EBE73A4614213EF05DFE3A4624
:10146800206815213EF058FE3246294611483EF0C4
:10147800CEFE2068182269460FF010FD002810DA09
:1014880058F0CAF8094B19580B483EF0C0FE2068BE
:101498000FF01CFC4FF0FF332360CAE74FF0FF301A
:1014A800C9E70020C7E700BFB7D705000C00000058
:1014B800D7D70500F0D7050012D8050070B5054646
:1014C800154C204657F059FD20B36268236912680D
:1014D800D2000ED4114940F25463114A11483FF02A
:1014E800FDF811483FF0FAF840F254610C483FF01B
:1014F800EEF81B68DB0048BF85F001053DB1A36825
:10150800DB684FF08051BDE8704003481847A36876
:101518001B69F6E770BD00BF5C9705005DD8050044
:101528002CD805005BD705009BD8050030B50C46C4
:101538001D4691B02AB14B69CA682A48098A3EF00B
:1015480066FEA169D9B1E469CCB13F2C28BF3F241C
:101558006846224658F029F804F140030DEB0304CD
:1015680000236946204804F8403C3EF050FE684697
:101578001E49FEF7A5FF48B90120FFF79FFF15B1E7
:101588001B483EF044FE002011B030BD68461949A2
:10159800FEF796FF0028F0D068461749FEF790FF3F
:1015A8000028ECD1154C204657F0E7FC0028E6D07F
:1015B80063681B68DB000ED4114940F27D63114A51
:1015C80011483FF08BF811483FF088F840F27D61F0
:1015D8000C483FF07CF8A3684FF0805120465B69C7
:1015E8009847CCE7ADD80500D0D80500E2D805006B
:1015F800FCD80500E9D80500F1D805005C9705007E
:101608005DD805002CD805005BD705009BD80500E0
:101618002DE9F04FA748A7B03EF0F9FDA6483EF0E7
:10162800F6FDA64C204657F0A8FC00286ED063684B
:10163800A1681B682269D8000ED4A14940F2E93399
:10164800A04AA1483FF04AF8A0483FF047F840F2C6
:10165800E9319C483FF03BF81368204643F080533B
:1016680013600B689A4A1C219847014610B19948A3
:101678003EF0CDFD98483EF0CAFD98483EF0C7FDC3
:10168800974998483EF0C3FD42F2B32296499748DD
:101698003EF0BDFD96483EF0BAFD9649002019F08F
:1016A8007BF8014694483EF0B2FD944D10F0ACFD35
:1016B800044600282ED00021FFF700FE50B3082171
:1016C8002046FFF7FBFD28B34FF000098C4F8D4BE8
:1016D80041F288353B608C4B8C4A7B608C4B884947
:1016E800BB608C4B8C48FB608C4B3B614FF40063B8
:1016F800CDE90032CDE90235894A8A4B3DF0AAFD91
:10170800014680B188483EF082FD31E087483EF0CE
:101718007EFDAFE728463EF07AFD00214FF42030E9
:1017280039F00AF9C2E70124814B6F49019342F26B
:10173800B3222B46784800943DF040FF014608B19B
:101748007C48E0E7242207A857F056FF1E23ADF88F
:101758002030794B07A970488DF8224009933DF055
:10176800A4FD014680B19DF83D2074483EF04FFD30
:1017780069483DF025FF68483DF096FD00214FF48B
:10178800203039F0D9F8A2E70DF158086C4D242221
:1017980006904046059557F02FFF414605AB5E4839
:1017A800ADF85C40189419933DF0EFFD014608B17F
:1017B8006448A8E7294664483EF029FD57F01DFD16
:1017C8004FF47A73A0FB034503FB015542F21073F3
:1017D800E40B44EA4544E4184FEAD535DFF838A16C
:1017E80045F1000541F2883150463DF0DEFEC31D4B
:1017F800014656D150463DF085FE014630B153486A
:101808003EF005FD44483DF0C4FEB1E750483EF0C7
:10181800FEFC57F0F2FC4FF47A76A0FB060306FBB9
:101828000131C30B43EA4143A3424FEAD131A941F5
:1018380031DB4B464021474A40463CF0CFFF3C2233
:101848000446002107A857F0D7FE1123424D07A9E7
:101858005046CDE90D840A95ADF82C300C943DF036
:1018680091FD09F1010B0146F8B9424629463B486A
:101878003EF0CDFC57F0C1FC42F21073D946A0FBF4
:10188800064506FB0155E40B44EA4544E4184FEAD3
:10189800D53545F10005002140F6CD4039F04CF82A
:1018A800A0E70028B5D02E48AAE72E483EF0AFFCA6
:1018B800D946A7E70AD905001CD905005C97050099
:1018C8005DD805002CD805005BD705009BD805001E
:1018D80001000A0037D9050072D9050089D9050029
:1018E800B8D90500C4D90500D4D90500E0D9050048
:1018F800F1D905000FDA050029DA05004BDA0500F1
:10190800B0490020A0020020F513000054B50020C3
:10191800291300008D130000C44900204D01040064
:101928003515000054BD002072DA050054D90500B1
:10193800791200008EDA0500B4DA0500CADA05006B
:10194800F1DA050001DB050022DB05004BDB0500B1
:1019580061DB050088DB050093DB0500A5DB0500DE
:101968006FDB0500B5DB05002DE9F04F91B0009362
:1019780002F004030293C2F3C2030133840705464D
:101988000E46DDF868800392059340F0F681041D49
:1019980030B1072909D86FF01B0011B0BDE8F08FEE
:1019A80001F00706341DC6F108064FF000094FF094
:1019B800040B009B4F46013B01934FF0FF324B460F
:1019C800DA46CDF810900DB10099216005980028ED
:1019D80000F3D78098480099814203D39748814201
:1019E800C0F0CF800399A4EB050E89074FEA9E004B
:1019F80040F1E2804FF0000CCCE07A285AD84B280E
:101A08000CD8472856D829282AD8252851D051D863
:101A1800202877D023384342434173E04C382E289E
:101A280048D8DFE800F06F474747474747474747E9
:101A38004747494747474747474747594749495904
:101A480059596F496C476F471849184747807D496E
:101A5800474749477D00002000234FF0040B39E039
:101A680001212A38C0B201FA00F010EA0E0F49D15C
:101A780010F0625C30D110EA010343D06046013CAB
:101A88005C44B4FBFBF40BFB04F4002D60D0AAEB20
:101A9800050CA4446645FFF47EAF00286AD1BAF16C
:101AA800040F45D158F8040B20604FF0040A0434A1
:101AB80028E0013A002325E0019B13F8013C6C2B38
:101AC80033D10020019B13F8023C6C2B0346C4D190
:101AD8004FF0080BDA46D2E708F1070828F00708A4
:101AE800073424F00704F8E802AB35B1069820441F
:101AF800B0423FF650AFC4E900AB002308344FF0C2
:101B0800080BDA46019911F8010F0191002800F03D
:101B1800BC80002B7FF471AF2528F3D1012301325B
:101B28004FF0040BEDE7184696E700200346A6E7BA
:101B3800BAF1080F40F09B8008F1070828F0070861
:101B4800F8E80201C4E900014FF0080A0834D9E7AF
:101B580080B9BAF1040F02D108F10408A5E7BAF177
:101B6800080F40F0848008F1070828F0070808F1FA
:101B78000808E9E705990139059158F8041B00910F
:101B880021E7039988074AD54FF0010CA4EB050E0D
:101B98004FEA9E00BEF5007F1ED3294940F27B2301
:101BA800284A29483EF09AFD28483EF097FD40F221
:101BB8007B2124483EF08BFD0F2F0FD8002D49D0F4
:101BC80007F140010DEB010C0CF8200C0CF8102C5F
:101BD80004980130049021E00F2F0CD918494FF4D4
:101BE8002073184A18483EF079FD19483EF076FDF2
:101BF8004FF42071DDE7CDB107F140010DEB010E87
:101C0800C0B20EF8200C0EF8102CBCF1000FDFD07B
:101C180060F07F000EF8200C09F101090137C5F1C9
:101C280008014FF6DA7E043406916BE7BCF1000F29
:101C380010D00136F2E700BF34960500F4560600CE
:101C48008656060015DE05005BD7050043DE050055
:101C580064DE0500029802360028DFD10098CDE93D
:101C68000632FEF73FFCDDE906320644D6E740F2CD
:101C7800C523434A434944483EF030FD5146434852
:101C88003EF02CFD40F2C52193E7631BB3F5806F4E
:101C98000CD33C4940F2D123394A3B483EF01EFD63
:101CA8003B483EF01BFD40F2D12182E71DB9A6F169
:101CB8000804E01871E6029A9B0828602B709DF8CA
:101CC8001030C2B1EB7085F80290B9F1000F05D061
:101CD800002208A8C5F1010C97420ED14FF0000A66
:101CE800C5F101030DF1200801930DF1300B5745A3
:101CF80012D1601B51E66B70E5E710F8013B19063D
:101D080008D504EB0C0E764503F07F03FFF443AED1
:101D180004F8013B0132DFE7B9F1000F03D098F96D
:101D28000020002A17DB029BD3B11AF80B2004F815
:101D3800012B0022019B981820448642FFF42BAE09
:101D480098F80000009904F8010B2046039257F018
:101D58002CFC039A14440AF1010A08F10108C6E7A9
:101D680098F8002055F822300093029B009845F817
:101D78002230FEF7B7FB421CDCE76FF00D000CE6E3
:101D880015DE0500865606005BD705007EDE0500D9
:101D980093DE05002DE9F04F95B000AF8A46044662
:101DA8007A62BB6158B9A8494FF46573A74AA84835
:101DB8003EF094FC4FF46571A4483EF088FCBB6F7C
:101DC80090F802B0C3F3C0033B6141B9457800788D
:101DD8000BEB80002044554517D8A0EB040AE378A4
:101DE8007B61BBF1000F02D0BB6FD80716D47B69AB
:101DF80053BB7B6A1BB151462046BA699847554682
:101E080028465437BD46BDE8F08F461C3046FEF7DD
:101E180069FB013030440AF1010ADCE72378626883
:101E28003B629B00FB603B6AFA6104EB83097B6AB7
:101E3800002B40F00081C8460026554609EB0B0AE6
:101E4800C24551D1D94413E0BB6F9907D1D5237846
:101E580099463B629B00FB60636804EB8909FB6160
:101E68007B6A002B7AD15546BBF1000F4FD15E46F5
:101E7800BB6F13F0050F0CBF4FF0020B4FF0010BB7
:101E88007B6909EB430ABB6F03F002037B62D14510
:101E9800B6D019F8021B19F8013C54F823806D4B91
:101EA800984502D36C4B984538D33B69002B42D0F8
:101EB800F8693EF085F900283DD0E8468AB06A46C0
:101EC800664B5361FB69C2E906314FF40073138412
:101ED800634B42F8103F00234FF41251614802F05F
:101EE80021F8023DC546D2E718F8013B54F8230013
:101EF800FEF7F8FAFB6F01303BB1D7F880309E420D
:101F08003EBFFB6F23F816000136054498E7BB6F08
:101F180013F004061CBF7E6AD944A9E73B6923B1C4
:101F2800F8693EF04DF90028C7D1BB6FDA0705D430
:101F3800A5EB0B05ABE77B6A002BA8D04046FEF764
:101F4800D1FAFB6F43B1D7F880309E423FBFFA6F9A
:101F5800431C22F816300136054498E7BBF1000F00
:101F68006FD0BB6F13F004067ED0D846002607F169
:101F780040005A46494657F018FB7B69D9445B0034
:101F88007B607B6909EB4303BB60BB6F03F0020313
:101F98003B60BB68994569D1B96F6378B86F8907A9
:101FA80048BF002106EB030258BF4FEA5801C50796
:101FB800D2B200F1DF8010F0040F14BF40460020B9
:101FC800FB616270A070E1702046BA69F9687B6AAB
:101FD8009847051EFFF614AF3B6A41462370FB691C
:101FE800BA6963707B6984F802B0E37007F1400056
:101FF8007B6A9847B0F10008C0F2E980FB68AAEB59
:102008000B01C91A7B684846C91ABA697B6A98479E
:102018000028C0F2DE804FF0000BA84408EB000552
:1020280007F1300AB345C0F0A7800021BA69084615
:102038007B6A9847E4E65E464FF0000807F13000F7
:1020480097E75E46D84698E7AADE050015DE050044
:102058005BD7050034960500F4560600C5DE05007A
:1020680004000001009B0500B04686E719F8021B32
:10207800594B19F8015C54F82500984202D3574B84
:10208800984216D33B692BB1F8693EF099F80028BD
:102098007FF47FAF3B68002B4AD00F2E3ED95049C2
:1020A80040F24A434F4A50483EF018FB40F24A413A
:1020B80082E63B692BB1F8693EF082F800287FF48C
:1020C80068AFBB6FDB070BD50F2E27D944494FF4F8
:1020D8008863444A44483EF001FB4FF488616BE64C
:1020E800BB6F58077FF555AFB8F10F0F09D93F49B6
:1020F80040F243433B4A3C483EF0F0FA40F2434149
:102108005AE608F1280307F1280208F1010103EB58
:10211800020808F8105C5FFA81F83AE706F128032C
:1021280007F12802711C9E1806F8205CCEB230E731
:10213800B8F10F0F09D92D4940F24D43294A2A48D1
:102148003EF0CCFA40F24D4136E608F1280307F19B
:10215800280208F1010003EB020C07F1500308F113
:10216800020853FA80F00CF8101C5FFA88F800F89F
:10217800105C0EE7002023E71BF80A3054F8239080
:1021880087F82F30FB6FFBB133F81B800121BA6948
:102198007B6A07F12F00984700281ADB0544B8F13D
:1021A800000F06D14846FEF79DF900F101081FFA15
:1021B80088F841464846BA697B6A9847002808DB90
:1021C80005440BF1010B2DE7D7F87C80DEE7454687
:1021D80016E6054614E600BF34960500F4560600D8
:1021E80068DF050015DE05005BD7050087DF050001
:1021F800014B1860704700BFA402002080B5054657
:102208000E461746984638F0CBFB034657F004FABB
:102218000446DFF81890424649F8003039463046FF
:10222800A84754F8090002F0EDFF00BF08000000BD
:10223800F8B50F4600293BD00668012230463EF02B
:102248002DF80146044630463DF0F0FFC3070DD493
:10225800AF23184A184919483EF040FA3946184839
:102268003EF03CFAAF2113483EF031FA21463046A1
:102278003DF0F2FF25182946002230463DF0D6FFF2
:102288002D1AAC420BD0B7230A4A0E490B483EF030
:1022980025FA39460C483EF021FAB721E3E72146F2
:1022A80030463DF0DFFF2146BDE8F8403EF01BB95F
:1022B800F8BD00BFB8DF0500D9DF05005BD7050012
:1022C800EADF050022E0050048E005002DE9F843B3
:1022D8000F4606681446B2684B1EB2F5004F34BF6D
:1022E800042108213B4010D0C7F1000909EA070979
:1022F800494503F1FF3028BF494618420CD11F4613
:10230800DCB900252846BDE8F8838F4213D821465A
:10231800BDE8F8433EF029B92E494FF4A2732E4A7E
:102328002E483EF0DBF92E483EF0D8F94FF4A27162
:1023380029483EF0CCF99946E2E7B2EBD40FE0D950
:10234800E319591A10463DF0B3FF014630463EF0F6
:1023580009F880460028D4D0B36809EBC005B3F566
:10236800004F34BF042308231D4435447B1E1D44FD
:10237800B5FBF7F57D43A5EB0905294630463DF049
:102388008DFF2C44073424F00704A41B804507461E
:102398004FEAE40408D20246414630463EF01CF8B3
:1023A800414630463EF05DF8394630463DF054FF30
:1023B8003844844208D23946304622463EF00CF86A
:1023C800214630463EF04DF80122394630463DF070
:1023D80049FF97E784E00500B8DF05005BD70500F3
:1023E8009FE00500B2F5802F2DE9F04110D2042AB4
:1023F80028D843494FF4F973424A43483EF06EF9EE
:1024080042483EF06BF94FF4F9713E483EF05FF9EF
:102418000823D21ACC1D114424F0070421F0070127
:10242800091B17294FEAD1060ED8394940F2FB1388
:10243800344A35483EF052F934483EF04FF940F2FC
:10244800FB11E2E70423E4E7002704603146304645
:10245800A660E7603DF035FF0121421D8046304609
:102468003DF026FF9200D51DED082844B0423AD829
:10247800B8F1FF3F3946A2F1100204F11000B8BFCD
:102488003A4657F0B9F82A46394620463DF002FF49
:102498003B463A46394620463DF0D3FEA6EB0508B2
:1024A8002046394601223DF0DDFE424629463DF0F0
:1024B800F1FE2B463A46294620463DF0C2FE3146FB
:1024C80020463DF0E7FE43463A46314620463DF079
:1024D800B8FE3146204601223DF0C4FE2946BDE83B
:1024E800F0413DF0BEBF0B494FF40373054A06485F
:1024F8003EF0F4F805483EF0F1F84FF4037184E734
:10250800BCE00500B8DF05005BD70500DDE005008D
:10251800F6E005001FE1050000B5162257F07CF82B
:10252800024B1A504FF0FF305DF804FB0C0000001E
:102538000F2800B508D957F06FF80922074B1A5031
:102548004FF0FF305DF804FB2822054B02FB0033F7
:10255800D3E8AF3F002BEED00020F3E70C000000DB
:10256800B00200202823434330B50D4908330B44FB
:10257800D3E8AF2F92B1541ED3E8EF5F954204D150
:10258800C3E8EC4FBCF1000FF6D1F1D1012A05D117
:102598002823584300230A180B50536030BD00BF4E
:1025A800A802002038B504461546FFF7C1FF0028E9
:1025B8000DDB28236343074AD0184068086015B12B
:1025C8000C3313442B6028235C43105938BD00207A
:1025D800FCE700BFA802002070B500254FF0FF33CC
:1025E8004FF0FF32174835F0BDFE174BD3E8AF2F39
:1025F80082B10135102D03F12803F7D157F00CF8FB
:1026080017224FF0FF35114B1A500E483DF0F2FFDC
:10261800284670BD28246C43D3E8EF0F0130C3E887
:10262800E10F0029F8D10A4E331932515A6004F1EA
:102638000C00304456F0EFFC04F12000304456F012
:10264800D4FDE2E7F00F0020B00200200C000000EB
:10265800A802002010B40446104628225443084B10
:102668001A191951506040B1C26832B10C34234470
:1026780040F2051210BC3DF0ACBF10BC704700BF63
:10268800A80200202DE9F84F0446A38B0846190735
:10269800154612D4022803F0070165D120463DF003
:1026A800ADFF88B10138042800F23781DFE810F067
:1026B8005C0035018200D400040101280CBF43F0FE
:1026C800100143F02001A1831434204635F008FCA2
:1026D800002840F09F819A4940F23113994A9A485C
:1026E8003DF0FCFF2146B1E003F00702501F01282E
:1026F8001ED80020062A2768C4E9000014D13A46EB
:1027080003E0E08B0130E0831268002AF9D123F05E
:10271800070343F002022046A2833DF06FFF90B307
:1027280042F02002A2832EE023F007039AB2F2E7D8
:10273800042A33D123F007039AB22046A2833DF03E
:102748005DFF10B142F02002A283A38B03F00709BA
:10275800894540F0EC80A18BCA0640F1528121F0F6
:102768001003A38301F00701D4F81880A38BB8F1F4
:10277800000FB9DA0022276823F00703C4E9002212
:1027880043F00103A383A38B03F00709894540F0B5
:10279800CF80002FDFD00026B24644E06B4940F2DC
:1027A8001B136B4A68483DF099FF40F21B116848BB
:1027B8003DF08DFF49B167494FF4AB73644A6248F5
:1027C8003DF08CFF4FF4AB71F1E723684BB96249D8
:1027D80040F257135E4A5C483DF080FF40F25711C3
:1027E800E5E723691E684EB95C494FF4AD73584A52
:1027F80055483DF073FF4FF4AD71D8E70F46884652
:102808004FF00609A38B23F0070343F006039BB29E
:10281800A383A268002A40F08D80002F40F08D80AD
:10282800002E98D0BA4643F0080304F1140B58461A
:10283800A38335F055FB002840F09A80404940F2C8
:102848003113404A40483DF049FF594644483DF05D
:1028580045FF40F23111AFE0022909D0414940F269
:102868005D133B4A38483DF039FF40F25D119EE761
:10287800E78B4FB13C494FF4AF73354A32483DF0CE
:102888002DFF4FF4AF7192E723695E684EB9334963
:1028980040F261132E4A2C483DF020FF40F26111AE
:1028A80085E7A38BB84623F0070343F004039BB2E4
:1028B8004FF00409A383ACE7012909D02B494FF451
:1028C800B273234A20483DF009FF4FF4B2716EE716
:1028D80023684BB9204940F265131D4A1A483DF058
:1028E800FDFE40F2651162E723699E684EB91B49F7
:1028F8004FF4B473164A14483DF0F0FE4FF4B47127
:1029080055E70027A38BB84623F0070343F00503D8
:102918009BB24FF00509A3837BE70C4940F26B1388
:102928000B4A09483DF0DAFE40F26B113FE70027F9
:1029380000266EE74FF0010A75E7924673E700BF7D
:102948001AE20500EDE105005BD705008656060092
:102958004AE105006CE1050078E105009BE105000E
:1029680031E20500B2E10500C8E10500D7E1050044
:1029780085F31188BFF36F8FBAF1000F1ED1002FB6
:102988002FD116B120462649B0474FF02003EFF368
:10299800118583F31288BFF36F8F584635F092FA8A
:1029A80038BB88231F4A204920483DF097FE5946E6
:1029B8001F483DF093FE88211A48F9E6A1680029CE
:1029C800DDD00D680029DAD043464A462046D1F8C2
:1029D80004A0D0471DB12B6829461D46F2E72B46B7
:1029E800FAE7394643464A4620463F683DF032FEFC
:1029F800C5E7584635F082FAA38B23F00803A38372
:102A0800A9E68B067FF560AE21F02003A38301F0D1
:102A1800070143E685F31188BFF36F8FBDE8F88F90
:102A28003D2A0000EDE1050046E205005BD7050000
:102A38005BE20500F8B504460D4600F114064FF0B8
:102A48002003EFF3118783F31288BFF36F8F3046AB
:102A580035F038FA68B988230B4A0C490C483DF020
:102A68003DFE31460B483DF039FE882106483DF0D1
:102A78002EFE304635F042FAA5613A462046BDE8BA
:102A8800F8400121FFF7FEBDEDE1050046E2050033
:102A98005BD705005BE205002DE9F04704460F46C9
:102AA8003DF0C8FD051E69DB04F114094FF0200351
:102AB800EFF3118A83F31288BFF36F8F484635F01E
:102AC80001FA804660B98823384A394939483DF0C7
:102AD80005FE494638483DF001FE8821334842E06A
:102AE800484635F00BFA4FF6FF72E38BA68B9342FC
:102AF80006F0070645D0022E15D135460133E3838B
:102B0800484635F0EDF9002841D140F23113274A03
:102B18002A4928483DF0E2FD494629483DF0DEFDB6
:102B280040F23111DAE7062E13D8DFE806F0092D56
:102B38001212090409006FF085054FF00008DFE75D
:102B480000233B60636883B9C4E9007786B13546E2
:102B5800F3E71C4917484FF4E4731B4A3DF0BEFDE8
:102B68004FF4E47118483DF0B2FD1F606760EDE76F
:102B7800524602212046FFF785FD35462846BDE826
:102B8800F0876FF00A05D8E76FF00405D5E78AF3F8
:102B98001188BFF36F8FB8F1000FEFD000233246D2
:102BA800394620463DF056FDE8E700BFEDE1050057
:102BB80046E205005BD705005BE205001AE2050066
:102BC80031E20500D7E105004AE1050008B5426891
:102BD800034602F00302022A81600AD0032A4FF05A
:102BE800000103D0012A0AD1596006E0186859602B
:102BF80008BD186800225A6058B90020F8E706494D
:102C080006484523064A3DF069FD452104483DF044
:102C18005EFD38F099FFF0E7865606005BD70500A1
:102C280071E2050038B50D4604462022002156F011
:102C3800E3FC0022EB68E361AB68A3612B682362C5
:102C48006B68A26263622A6923B1591E194208BFE0
:102C580042F0010222610122002104F12C0056F009
:102C680017FA48B1054906482E23064A3DF036FDB5
:102C78002E2104483DF02BFD38BD00BFBAE2050007
:102C88005BD7050094E205002DE9F04F002789B0D5
:102C9800CDE90123436A04468B428846BA46059724
:102CA800079753D300F114064FF02003EFF3118B6D
:102CB80083F31288BFF36F8F3046D94635F002F997
:102CC80058B988234B4A4C494C483DF007FD3146DA
:102CD8004B483DF003FD882160E0304635F00EF9A1
:102CE800079A2AB1394620463DF0D9FD00230793BB
:102CF80006A920463DF0FFFC0699054641452ED31E
:102D08002268236A204613F8221003EB820A21F076
:102D1800030103F82210216842463DF010FDE368E4
:102D28002060984216D00025304635F0D9F840B3D7
:102D380089F31188BFF36F8F059929B1A2690AB188
:102D48002046904700230593002DADD1504609B089
:102D5800BDE8F08F236943F008032361E3E718B166
:102D680020463DF006FDDFE7DDE90132134338D0A8
:102D7800039156F03EF9039998BB304635F0B0F808
:102D880078B940F231131B4A1E491C483DF0A6FC95
:102D980031461D483DF0A2FC40F2311115483DF086
:102DA80096FC8BF31188BFF36F8F04F12C00DDE9DB
:102DB800012335F037FD05464FF02003EFF3118965
:102DC80083F31288BFF36F8F304635F07BF8002805
:102DD8003FF477AFB5FA85F5304635F08FF86D09D1
:102DE800A2E7204607AB05AA27683DF0E1FC0546A7
:102DF8009AE700BFEDE1050046E205005BD7050054
:102E08005BE205001AE2050031E205002DE9F04118
:102E18000446C36908460E46984704F11405074658
:102E28004FF02003EFF3118883F31288BFF36F8FFD
:102E3800284635F047F868B988231A4A1A491B48C2
:102E48003DF04CFC29461A483DF048FC88211548BD
:102E58003DF03DFC284635F051F833783A4643F0CA
:102E680001033370616820463DF069FC60602046CC
:102E78003DF030FD284635F033F868B940F231139B
:102E8800084A0C4909483DF029FC29460A483DF002
:102E980025FC40F23111DAE788F31188BFF36F8F10
:102EA800BDE8F081EDE1050046E205005BD70500CD
:102EB8005BE205001AE2050031E205002DE9F8435E
:102EC800044600F114074FF02003EFF3118883F351
:102ED8001288BFF36F8F384634F0F4FF054668B99F
:102EE8008823354A354936483DF0F8FB3946354898
:102EF8003DF0F4FB882130483DF0E9FB384634F0DA
:102F0800FDFF2369A26813F0080F02D163689A4293
:102F180000D9636A9B1A002B3FD0216A11F822302E
:102F280001EB820913F003003AD0022803D151F8CB
:102F38002260B60805D1D8071FD44846E3699847E8
:102F48000646A168324620463DF0F9FB3146A060AE
:102F580020463DF002FC384634F0C2FF10BB40F278
:102F68003113154A184916483DF0B8FB3946174839
:102F78003DF0B4FB40F23111BDE743F0020301F824
:102F88002230E3694846A568984729460246204604
:102F98003DF0D5FB0025A060DDE71D46A946DAE730
:102FA8000546FBE788F31188BFF36F8F002D8AD1A0
:102FB8004846BDE8F88300BFEDE1050046E205009C
:102FC8005BD705005BE205001AE2050031E2050067
:102FD8002DE9F0410446C36908460D46984704F1B7
:102FE800140607464FF02003EFF3118883F3128885
:102FF800BFF36F8F304634F065FF68B98823274ADE
:10300800274928483DF06AFB314627483DF066FBD2
:10301800882122483DF05BFB304634F06FFF2B7867
:103028006FF300032B7023699B0705D5E268236AB9
:1030380003EB82039D4222D12B786FF341032B705F
:10304800D4E90231994204D13A4620463DF077FB53
:10305800A060394620463DF080FB304634F040FF02
:1030680090B940F231130D4A10490E483DF036FB35
:1030780031460F483DF032FB40F23111C9E72B6869
:1030880067F39F032B60E8E788F31188BFF36F8F1E
:1030980004F12C00BDE8F04135F080BBEDE10500FE
:1030A80046E205005BD705005BE205001AE2050071
:1030B80031E20500044608B54FF02002EFF3118312
:1030C80082F31288BFF36F8F19F03AF9204602F0A5
:1030D8004FF803483DF09BF802F0C6F9FCE700BF43
:1030E800C3E2050010B530B90B480C493DF00DFCA2
:1030F8006FF0150010BD836833B9074808493DF0E3
:1031080004FC6FF00400F5E71B6813B1BDE810403C
:1031180018471846EEE700BF189B0500ECE20500CB
:10312800FDE2050010B530B90B480C493DF0EDFB48
:103138006FF0150010BD836833B9074808493DF0A2
:10314800E4FB6FF00400F5E75B6813B1BDE81040DD
:1031580018471846EEE700BF189B0500ECE205008B
:10316800FDE2050070B508B101B132B90B480C4950
:103178003DF0CBFB6FF0150070BD84680CB1E568BD
:1031880035B9064807493DF0C0FB6FF00400F3E786
:1031980041F8040BE368BDE870401847189B050028
:1031A8001BE30500FDE2050010B5044630B91048E0
:1031B80010493DF0AAFB6FF0150010BD006830B94A
:1031C8000B480D493DF0A1FB6FF00100F5E783685E
:1031D8000BB11B6933B9064808493DF096FB6FF0FF
:1031E8000400EAE7616898470028E6D12060E4E730
:1031F800189B050047E3050058E30500FDE20500BC
:1032080070B51346044630B9104811493DF07DFBAE
:103218006FF0150070BD006830B90C480D493DF0DD
:1032280074FB6FF00100F5E782680AB1956835B95B
:10323800064809493DF069FB6FF00400EAE70A46D1
:10324800AC466168BDE87040604700BF189B050048
:1032580047E3050058E30500FDE20500034A13684B
:103268000BB9526813600020704700BF2805002082
:1032780030B50C460E4985B00291D0F8AC11054620
:10328800CDE9003100F1E0014FF0FF3320461AF09C
:1032980069FF50B9012384F86430D5F8A83123B107
:1032A800204605B0BDE83040184705B030BD00BF26
:1032B8000B0A040038B50C46114605463DF0A3FB41
:1032C800034638B9284604493DF09DFB03460020D3
:1032D800236038BD0120FBE7E53F06002DE9F04FEC
:1032E800012381460569466885B005F56177D7E809
:1032F800EF2F002A03D1C7E8E13F0029F7D10CBF1F
:103308001A46002240F0B180B368B16A05F5E47846
:103318001C1F10463DF0FCFB84425FD8013A00F0C8
:103328009E80B2FA82F24FF00044D4407268204680
:10333800073222F00302C5F86022B16A3DF0E8FBCB
:10334800C5F86402B36A40466343033323F00303BA
:1033580002EB4302230103EB4403093323F0030385
:1033680003EBC403C5F858221A440832C5F854229E
:103378007368C5F85C42C5F850323D4BC5E9A9638E
:10338800316800F0DFF9044630BBD9F804A0D9F859
:103398001090DAE9073409F5307B012B584608BF4D
:1033A800103C35F0ADFE0023DAF8240031494FF423
:1033B800806201EB802100935846234635F0BAFE1F
:1033C80009F52C702C4935F0D7FCDAF8140083681D
:1033D8005C682CB96FF05704002139E0013298E796
:1033E8004B46264ADAF81810A04704460028F3D1BD
:1033F800DAF8140083681B69002BEBD00122DAF895
:103408001810984704460028E6D11D4B2846C5F8F1
:10341800A8311C4BC5F8AC311B4B0393D5F81032BF
:103428000293D5F80832CDE90083D5F86832B26A3C
:10343800D5F8801300F04EF904460028CCD105F1E8
:10344800E0001BF033F80028C5F888030ADB0221E6
:1034580038463DF00DFB204605B0BDE8F08F6FF013
:103468000B04B9E76FF01504B6E76FF07704F2E7DD
:10347800610A0400B8C60020470A04003B0A040099
:1034880095340000EF0B0400A90A040013B50446A4
:1034980040B100230122CDE90032074BD0E90912DF
:1034A8001AF014FEA36E1B6823B1E06E02B0BDE8EB
:1034B8001040184702B010BDE53F060013B504469A
:1034C8000846216901F56171D1E8AF1F022910D1C1
:1034D80093B1A0B10121CDE900311346D0E9091219
:1034E8001AF0F4FD074B984208BF6FF00B0002B0CA
:1034F80010BD6FF00F00FAE76FF04C00F7E76FF0C0
:103508000100F4E72EF8FFFF2DE9F743884615463A
:10351800066906F56173D3E8AF3F022B5FD11368E4
:1035280023B96FF0150003B0BDE8F0831B78002BBA
:10353800F7D0D6F88093B9F1000F33D106F5D877D4
:103548004FF0FF324FF0FF33384634F00BFF304670
:103558002A6801A9FFF7AEFE019C1CB938463DF068
:1035680085FADEE705F10803A3666B6984F86490C1
:10357800E366E46360B138463DF078FA21463046A8
:10358800236E2A68FFF774FE0020C8F80040CAE7D7
:103598002022296804F1400055F071FF38463DF0BB
:1035A80065FAF1E730460F493DF02DFA0446002848
:1035B800B7D005F1080383666B69C063C36600234F
:1035C80080F8643020222968403055F058FF2246A0
:1035D8000121304600F060F80028D5D0A1E76FF04F
:1035E8000F00A0E7E53F060010B50C46006900F59E
:1035F8006173D3E8AF3F022B0FD189B10A4900F5B7
:103608002C7035F0EDFC204645F061F87022002161
:10361800204655F0F1FF002010BD6FF00F00FBE7CA
:103628006FF00100F8E700BF784A00202DE9F04F5D
:1036380005460E4690460027D0F8B0A085B0AAF5FA
:10364800AE7421463046FCF73BFFE0B9114BA4F1BC
:10365800400B0293DAF810303246CDE90083294650
:103668004FF0FF335846AAF5CE791AF07BFD60B9C2
:103678007023012203FB079383F86420DAF80C30E7
:103688000BB158469847703417B105B0BDE8F08FB4
:103698000127D6E71D0C04001FB5144690B18AB166
:1036A800012912D10A4B00F1E0010293D0F8AC31A4
:1036B800403201934FF0FF33204600931AF052FD39
:1036C80004B010BD6FF01500FAE70020F8E700BF5E
:1036D8001D0C04002DE9F04387B00E46DDE90E818C
:1036E8001446DDE910251F4630B329B3DFF850C072
:1036F80000F1E009002D08BF65469EB9CDE90344F5
:1037080000F5CE742046059645F05BF903ABCDE98C
:1037180000432A463B46414648461AF0EDFE07B0AC
:10372800BDE8F083002241460E9248462A4607B07B
:10373800BDE8F0431BF00CB86FF01500EFE700BFD1
:1037480035360000F0B50E46044689B000286FD023
:1037580001230246C3630023D0F89810364F403047
:1037680040F80C7C42F8301FCDE901334FF0FF33AD
:103778000093C36D44F090FC304A06AB92E8030016
:1037880083E8030018461AF0B3FB0546D8B904F1DC
:1037980034001AF08FFB0546A8B93946284805AA0F
:1037A80044F05CFC054670B9059B9A6872B10C330D
:1037B800D4F89400C4F8A0303DF05DFAC4F8D40001
:1037C80030B96FF00B05284609B0F0BD0346EFE7A6
:1037D800D4F894003DF04FFAC4F8D8000028F0D08F
:1037E800D4F88C30D4F8A010C4F8A8300423C4F856
:1037F800AC30C4F8C4300223A362124BB4F894204E
:10380800D4F8D470C4F8B810C4F8D010D4F8901014
:10381800236204F1A403A4F8B020C4F8A470C4F887
:10382800C010A4F8C820C4F8BC00A661E362CAE7C7
:103838006FF01505C7E700BF82E30500B09B0500E0
:103848008CE30500D49D050030B5002289B00F49EE
:103858000F4855F019FD002200230024CDE9062366
:103868000E230C4DCDE903344FF400622846CDE910
:103878000144094B0949009434F06CFA0849284678
:1038880034F0DCF9204609B030BD00BFF139000042
:10389800C81C002020180020C93C0000B8CA00201D
:1038A80094E305002DE9F047044607464FF0010967
:1038B800DFF8508014B93846BDE8F08794FAA4F5CB
:1038C800B5FA85F509FA05F32E0108EB05156FEA37
:1038D800030A24EA03042B7B002BEBD058F80630AC
:1038E8001B694BB94644736804222846196807EADD
:1038F8000A0700F0F1FADDE7284698470028D9D1F1
:10390800F0E700BF989B05002DE9F047DFF8B89075
:103918002E4C8046A9EB04039F2B0F460BD92C494C
:1039280040F225132B4A2C483CF0D8FE40F22511D2
:1039380028483CF0CCFE29483DF0EFF9064660B334
:1039480000252846BDE8F087237B73B12368DB6830
:103958000BB12046984723681B69B3B963680422F2
:103968002046196800F0B8FA013610344C4518D9C9
:103978001B494FF49973174A17483CF0AFFE194892
:103988003CF0ACFE4FF49971D2E7204698470028E6
:10399800E4D00AFA06F31D43E6E705464FF0010AAC
:1039A800E4E7D1D3B8F1000FCBD0002DC8D028461A
:1039B800FFF778FF0546002FF7D000214FF4A470D9
:1039C80036F0BAFFF1E700BFA89B0500989B0500F9
:1039D800C9E305009CE305005BD70500B44A002055
:1039E800EDE305000EE40500014834F0D7BE00BF42
:1039F8001C110020014B53F820007047149E05004D
:103A080008B5034608462BB1044A136000F0ACFD24
:103A1800002008BD6FF01500FBE700BF540500202B
:103A280010B5044C237813B9034834F0B7FE0123CA
:103A3800237010BD54C500201C11002010B5044689
:103A480006483DF06AF93CB1054BD3E8EF1F013950
:103A5800C3E8E21F002AF8D110BD00BFAC4A00201D
:103A6800B04A002000200146034BD3E8EF0FC3E81B
:103A7800E21F002AF9D17047AC4A002070B5FFF761
:103A8800F1FF05460F4C104EB44219D90F4940F2C8
:103A9800DD130F4A0F483CF021FE0F483CF01EFE94
:103AA80040F2DD110A483CF012FE63685B792BB1E5
:103AB80023685B6813B12946204698471034E3E72A
:103AC800F3D370BD989B0500A89B0500EDE30500A6
:103AD8009CE305005BD705000EE4050010B5044C17
:103AE80004492046FFF79EF8034B1C6010BD00BF39
:103AF800A80E0020009E0500A44A002008B5002357
:103B0800074A4FF400411370064A07481360074AF2
:103B18001360FFF775FFBDE80840FFF7DFBF00BF80
:103B280055C50020AC4A00201F0D0400B04A0020F3
:103B38000146002200230148FFF7A6B8A80E00207E
:103B48000148FFF7BBB900BFA80E0020024B014691
:103B58001868FFF73DBA00BFA44A002001483CF0AE
:103B6800C6BE00BFA80E002070B52E4B18780028DE
:103B780057D0FFF7E5FF054640B32B4BD3E8EF1FBF
:103B88000139C3E8E21F002AF8D1284C284EB44274
:103B980018D9284940F2D113274A28483CF09EFDFD
:103BA80027483CF09BFD40F2D11123483CF08FFDA3
:103BB80063685B7923B12368294620461B689847C8
:103BC8001034E4E7F4D32846FFF7C0FF1D4B1E4C22
:103BD8001B68002B19DD55F010FB4FF47A72A0FB1F
:103BE800020302FB0131C30B43EA4143D4E900203D
:103BF8009B1A40F2E9324FEAD13161EB000193425E
:103C080071F1000101D3FFF739FFD4E9003213F550
:103C18007A7342F10002C4E90032BDE87040FFF750
:103C28009DBF70BD54C50020B04A0020989B050078
:103C3800A89B0500EDE305009CE305005BD70500A4
:103C48000EE40500AC4A0020C01C002070B5154DDC
:103C5800297829BB0120FFF757FE134C134EB442B5
:103C680017D913494FF4CA73124A13483CF036FD6A
:103C780012483CF033FD4FF4CA710E483CF027FD62
:103C880063685B791BB1236820469B6898471034AA
:103C9800E5E7F5D3FFF768FF0028FBD101232B7078
:103CA80070BD00BF55C50020989B0500A89B050066
:103CB800EDE305009CE305005BD705000EE4050075
:103CC8002DE9F047304B314FFB1A1B090BD1304916
:103CD80040F26B332F4A30483CF000FD40F26B3124
:103CE8002C483CF0F4FC00210846FFF70DFE044682
:103CF80050B340F267684FF0000955F08DFC274B30
:103D0800274A1B58136033B1264B1B68092B02DD69
:103D1800254834F043FD0025DFF88CA044B1204647
:103D2800FFF7C0FD044618B94FF0FF384FF0FF39D0
:103D3800FFF71AFF064628B95DB942464B4650467A
:103D480034F070FD3546E9E74FF0FF384FF0FF39A2
:103D5800D3E70D4D08E0F0D22B689B691BB1002218
:103D68002846114698471035BD42F4D90F4940F20C
:103D78005F33084A08483CF0B1FC0D483CF0AEFC03
:103D880040F25F31ACE700BF989B0500A89B050097
:103D98002DE405009CE305005BD705000800000042
:103DA800A84A0020B04A00201C110020EDE30500BD
:103DB8000EE4050013B52C483CF0AFFF2B4B1B78E5
:103DC800002B36D04FF02003EFF3118483F31288D1
:103DD800BFF36F8F264834F075F868B98823254AF1
:103DE800254926483CF07AFC214925483CF076FCD8
:103DF800882120483CF06BFC1D4834F07FF8FFF721
:103E0800B3FE1B4834F06CF868B940F23113194A14
:103E18001C491A483CF062FC15491B483CF05EFC02
:103E280040F23111E5E784F31188BFF36F8F02B0D8
:103E380010BD164B1B68002BF9D050B90022002387
:103E48001348CDE900234FF40042002337F0C2FAAB
:103E5800EDE70928EBD10E4855F022FA0D4802B0DB
:103E6800BDE8104034F09ABCB04A002055C5002087
:103E7800A04A0020EDE1050046E205005BD70500F9
:103E88005BE205001AE2050031E20500A84A0020BD
:103E9800C81C00201C11002010B5064B04461B68E6
:103EA80098472146A0600448FEF7B0FFBDE81040DF
:103EB800FFF780BF54050020A80E0020044A054BD8
:103EC8009B1AB1EBD30F34BF52F831000020704772
:103ED800789A0500989B05000E4B10B5C31A1B1164
:103EE8000133DBB248B90C490C48DF230C4A3CF0DB
:103EF800F5FBDF210A483CF0EAFB4468237143687C
:103F08009A7101224368196043685A71BDE81040EC
:103F1800FFF786BD989B0500CDE405005BD705003B
:103F280095E405002DE9F04F8FB0C1F34A2804AF9E
:103F38000D469146B8607B600C0DB8F1000F68D053
:103F480000264FF0040B4FF00A0A07F11403C7F8D4
:103F58000C80C7E907667E620193CDF808B0CDF8FA
:103F680000A007F11C0332464846F968FDF712FF26
:103F7800B0F5006F03461CD36C468AB0D9F804101C
:103F880004AB2C481A46C3E9050140F2FF71D96118
:103F98004FF400711984284B42F8103F4FF4125126
:103FA80033462648FFF7BEFFA5462C37BD46BDE879
:103FB800F08FC0F30A0804F11700184420F0070036
:103FC80080083B60FFF7B4FD68F35325044640B30F
:103FD8003B6800F11001C7E9083607F11403F961DD
:103FE800CDE900A3CDF808B04846154AF96807F1AD
:103FF8001C03FDF7CFFE002813DA124912484FF4CC
:104008008573124A3CF06AFB4FF485710F483CF007
:104018005EFB04F1170020F007008008FFF788FD19
:10402800044668F353252A4620467B68B9683CF065
:10403800A6FEBAE7EDE4050004000001209B050098
:104048005B0D040059E505005BD705002CE505006C
:104058002DE9F04F87B00446DDE9105ADDE9126911
:104068000F4693469846BEB110213346524600206B
:10407800CDF80090CDF81490FDF776FC011E0CDA0F
:1040880021494FF49573214A21483CF027FB4FF40E
:1040980095711E483CF01BFB314605F1170008449A
:1040A8001C4B04F007040BF0070BE40020F007009A
:1040B80003EA412344EA8B1480081C430391FFF769
:1040C80037FD44EA05540546A0B19EB13346524631
:1040D8000399CDF800901030FDF746FC002809DA66
:1040E80009494FF4A273094A09483CF0F7FA4FF41A
:1040F800A271CEE7434622463946284607B0BDE8B6
:10410800F04F3CF03CBE00BF58E505002CE505002B
:104118005BD7050000FE0F000EB403B503AB53F8E0
:10412800042B01460448019301F084FC02B05DF8B9
:1041380004EB03B0704700BF61410000CA0605D414
:104148008B064CBF02490349FFF7E6BF704700BF23
:1041580079D705005E2B060038B54B6805461A6806
:10416800CB680C469A4202D108463CF084FE63684C
:10417800D3E8EF2F511CC3E8E01F0028F8D1A3684B
:104188009D5463681A68E3689A4209D90549064844
:104198007A23064A3CF0A2FA7A2104483CF097FABE
:1041A800002038BD91E505005BD7050062E50500F4
:1041B8002DE9F04F89B09B46DDE914939DF84C70CA
:1041C8000593169B04460D46179E06920493002FEE
:1041D80000F09480042F0BD9994940F2BF13994AF3
:1041E80099483CF07BFA40F2BF1196483CF06FFAD0
:1041F80006F0080307933CF0AAFD06F0020A0246FF
:1042080000284AD020469149FFF786FF8046BAF138
:10421800000F08D016F0440F41D12A4620468C4999
:10422800FFF77AFF804406F0010353B1894B20461B
:1042380053F82720884B8949002A08BF1A46FFF7F8
:104248006BFF06F00803002B55D0854B204653F82A
:1042580027208449FFF760FF0546069B2BB11A46C5
:1042680020468149FFF758FF0544BBF1000F05D0F0
:104278005A4620467D49FFF74FFF05444544B9F1AA
:10428800000F4CD1049B002B61D1F30700F1D280C1
:1042980031462046FFF752FFC6E08046B7E7744B29
:1042A80018680028BED0734B4FF47A7E1B684FF411
:1042B8006162B5FBF3F5B5FBF0F300FB13550EFB9C
:1042C80005F5B3FBF2FAB5FBF0FC3C2102FB1A3210
:1042D80000FB1C55B2FBF1F30EFB05F5B5FBF0F541
:1042E80001FB132220460092CDE901C552466249DE
:1042F800FFF712FF96E706F00805AEE7BBF1010FDE
:1043080008D1B9F1000F1CD1049B002B00F08C8060
:1043180000251CE0B9F1000FF6D0584812E05848C3
:104328004B46224657493BF01AFF00280CDA5649FB
:1043380040F21923434A44483CF0D0F940F219218D
:1043480053E74F483D46EBE7049B002B69D0DFF865
:104358003C91DFF83CA1DDF810803146B8F1100F30
:10436800204628BF4FF010084FF0000BFFF7E6FE7D
:104378005D4542DC059B514620461A78FFF7CCFE86
:104388004FF0010B1BF0070F03D149462046FFF7FA
:10439800C3FED84538D9059B5146204613F80B2053
:1043A800FFF7BAFE0BF1010BBBF1100FEAD14FF08A
:1043B800000B20463749FFF7AFFE5A46059B2046BB
:1043C8009A5CA2F120015F2928BF2E223249FFF70B
:1043D800A3FE0BF1010BBBF1100F1AD01BF0070F56
:1043E80003D149462046FFF797FED8455A46E5D8F7
:1043F80049462046FFF790FEEBE749462046FFF77F
:104408008BFE0BF1010BB3E720462449FFF784FE2E
:10441800C8E7059B43440593049BB3EB0803049347
:1044280099D1002F7FF431AF204609B0BDE8F04F95
:104438003CF021BD2046084A0849FFF76DFE27E7F2
:10444800C6E5050062E505005BD70500D2E5050075
:10445800D6E50500249E0500C1E5050023FA050000
:10446800389E0500FBE5050001E6050005E60500A8
:10447800BC4A0020B84A0020DFE50500990E040078
:10448800614100003D5A00000AE605002A2B06009B
:1044980013E6050019E605001BE60500282B0600B3
:1044A8002DE9F0410F884B6805460C4690468E680A
:1044B80086B0C7F382175BB1144A9B1A43F3CF0146
:1044C800002920DB2078C0F3C200FFF7F7FC034681
:1044D800214651F8102B6088C2F34A22002A01EBCA
:1044E800020408BF00210022C0F30B10CDE9040824
:1044F800CDE902142846314601970092FFF758FE8D
:1045080006B0BDE8F0810023E2E700BF789A050015
:1045180042F20F7373B58B4228BF0B4605680446F9
:10452800052168460D4A3AF059F906466368284657
:104538000B225B680A493CF091FC63683246694685
:1045480028465B683CF08AFC63681B2228465B6847
:1045580004493CF083FC02B070BD00BF18F50500AB
:104568003AE605001EE6050000210123064A9042AE
:1045780006D8064A01B901231360054B1860704735
:10458800012140085B00F2E740420F00B84A0020D2
:10459800BC4A0020F8B50D460446064F4618B442FA
:1045A80001D12846F8BD14F8011BBB6801485B68B7
:1045B8009847F4E79897050010B543681C680948C0
:1045C80054F0DBFC48B9084908489A23084A3CF0EB
:1045D80085F89A2106483CF07AF823685B685C60A5
:1045E80010BD00BF98970500A4E605005BD705003D
:1045F80066E60500014B036000207047809E0500B9
:104608000449431E0F3013F8012F8A5C83421A7045
:10461800F9D17047D8E60500F0B50746264E8DB0AB
:1046280001AD0C460FCE0FC50FCE0FC596E807009B
:1046380085E807003846002F39D0002C39D0381FBC
:104648000246214610344B780D781B0443EA056373
:10465800CD7804312B4311F8025C8C4243EA0523E0
:1046680042F8043FEFD10421144C8A07036916D19C
:10467800C3F30742A55C1A0EA25C42EA0562C3F3C3
:104688000725655DDBB2E35C42EA054242EA0322A4
:1046980021F0030330336B4453F82C3C534050F85B
:1046A800042F013153402C290361DED101200DB0C4
:1046B800F0BD2046FBE700BFB89B0500D8E6050023
:1046C8002DE9F04F002703689DB002934368DFF897
:1046D800BCA103938368DDE902460493C36805938C
:1046E8000369DDE904BE0693436907938369DDE93D
:1046F800062C0893C36998460993089B0093CD59E3
:104708000CAB2DBA5AF8049BDD514FEAF223A944A9
:1047180083EAB213009D83EA72634B4425EA0205DB
:1047280002EA0C0985EA09052B44434486EA0B058D
:104738004FEA743888EAB408254006EA0B0985EA86
:10474800090588EAB4580437A844402F03EB0E053E
:104758004344DE46DDF8008040F088804FF0100AC0
:104768004B490A9151460AF1010A0DF1700E0AF0FF
:104778000F070EEB870757F8407C01F00F094FEA47
:10478800B748019788EAF71801F10E0707F00F07F5
:104798000EEB870757F8407C09314FEAF74E8EEA4F
:1047A800774ECDF82CE001F00F010DF1700E0EEBF5
:1047B80081010EEB890959F840EC51F8401CBAF117
:1047C800400F7144DDF804E088EADE08DDF82CE0EB
:1047D80041448EEA972E714405EA02084FEAF52E05
:1047E8002CEA050787EA08078EEAB51EDDF8288057
:1047F8008EEA756E774458F804EF49F8401C774400
:104808000F4400994FEA733E394484EA0607CDF80D
:1048180028808EEAB30E07EA030704EA06088EEA40
:10482800B35E87EA080777440F4401EB0B0ECDF817
:1048380000C0B34622D10299394401600399194452
:10484800049B416023448360059B3344C360069BFB
:1048580073440361079B2B444361089B13448361A2
:10486800099B6344C3611DB0BDE8F08FB346CDF822
:1048780000C0264694461C462A4640E794462646EB
:104888002A461C4675463B466CE700BF809E0500DD
:10489800BC9E050010B50446C8B1702200213CF04A
:1048A80034FB0B4B0B4A0C49C4E900230B4B0C4857
:1048B800C4E902130B4BC4E9040301200A4BA361AA
:1048C80003F17453A3F52303A3F69243E36110BDE8
:1048D80085AE67BB67E6096A72F36E3C3AF54FA589
:1048E8007F520E518C68059BABD9831F014837F066
:1048F8006BBA00BF809F050038B5044618B90F4B46
:104908000F485B6898476168B1F5683F10D0B1F50A
:10491800680F0DD00B4DA9420AD011F468612068C8
:1049280007D00146084833F003F900232360656087
:1049380038BD142254F060FEF9E700BF9C0D00203A
:10494800D8E705002C5F5CA9EC4F002008B560B3E0
:104958004368B3F5683F0ED0B3F5680F18D0144A12
:10496800934220D000684FF0FF324FF0FF3333F00E
:10497800F9FC58B115E001220368D3E8EF1F0029BC
:1049880003D1C3E8E02F0028F7D10AD1002008BDE1
:104998000368084A1B7803F5807352F82330002B0C
:1049A800F4D00548F3E70548F1E76FF4E040EEE797
:1049B8002C5F5CA900000350E98FFFFFEA8FFFFF1F
:1049C80008B520B34368B3F5683F09D0B3F5680F5D
:1049D80013D0114A93421DD0006833F033FC14E021
:1049E80000220368D3E8EF1F012903D1C3E8E02FB1
:1049F8000028F7D109D0094808BD00210368084AF2
:104A08001B7803F5807342F823100020F4E76FF455
:104A1800E040F1E70348EFE72C5F5CA9E98FFFFF6F
:104A280000000350EA8FFFFF10B5044618B91D4B6C
:104A38001D485B6898476368B3F5683F2FD0B3F5A6
:104A4800680F2CD0194A934219D1236803BB4FF041
:104A5800FF324FF0FF332146154832F0FDFF08B909
:104A680023681BB90F4B13485B6898471422002131
:104A7800206854F0C1FD4FF46863636008E0B3F543
:104A8800683F0DD83A2B03D040F6BA629342DED184
:104A9800206854F0C0FA636843F03A03636010BDBD
:104AA800054AF3E79C0D0020D8E705002C5F5CA9B8
:104AB800EC4F0020FEE705003A00003A08B5064929
:104AC80040231422054854F085FABDE808400449FB
:104AD800044837F03DBA00BFEC4A0020EC4F0020F4
:104AE800889F05009C9F05002DE9F04780460C46ED
:104AF80000AF002936D0D1E90012E9468AB06D46E8
:104B0800A3684FF0050A2E461A48C5E90723C5E9E8
:104B1800050146F810AF002332464FF421511648DC
:104B2800FFF700FAD4E90312CD466369AD4613488E
:104B3800C5E90723C5E90501C5F810A000233246D9
:104B48004FF421510C48FFF7EDF9CD46E3690121F7
:104B58000B4A09483CF06CF9A3690121094A064847
:104B68003CF066F92146404632F0AAFCBD46BDE855
:104B7800F08700BF2BE80500609B05005AE8050098
:104B880089E8050098E8050030BFFFF7FDBF00BFC2
:104B9800124B134A2DE9F041D518013DB5FBF3F549
:104BA800DFF840805D43104B074608EB0304013CE7
:104BB800B4FBF3F403FB04540E1B30460B4954F0CA
:104BC800F4FC701942460021083E54F015FDC7F860
:104BD800946004F10800BDE8F08100BF0100000006
:104BE800000000000800000004000000A89B050069
:104BF800044B99685869884203D003494FF08052A2
:104C08000A60704714AA002004ED00E070B5344C27
:104C180006460D46334834493CF0CDFDA36AD90613
:104C28004DD5304831493CF0C6FD1120A36A1A071A
:104C380004D52C482E493CF0BEFD1220284CA36A0E
:104C48009B0712D52B4927483CF0B5FD636BA26A38
:104C5800110609D50121284A22483CF0E9F81EB17D
:104C6800A36A23F08003A36213201D4CA36ADA070A
:104C780004D51C4821493CF09EFD1420A36A9B06DC
:104C880004D518481E493CF096FD1520144B9A6A25
:104C9800D60602D49A6A940713D59B6AD90610D50A
:104CA800184940F26313184A18483BF017FD184892
:104CB8003BF014FD40F2631113483BF008FD10204F
:104CC800B4E7074B9A6A920642BF5A6A22F4005226
:104CD8005A629A6A42F0FF029A6200232B7070BDF2
:104CE80000ED00E0609B0500C6E80500DCE8050073
:104CF8000FE9050022E905003AE9050050E9050039
:104D08006FE90500D0E905009EE905005BD70500BD
:104D18001AEA050010B5244C244925483CF04BFDFF
:104D2800A36A99013ED5224822493CF044FD1E2041
:104D3800A36ADA0104D51E481F493CF03CFD1F2038
:104D4800194CA36ADB0204D519481C493CF033FD11
:104D58000220A36A1C0304D5154819493CF02BFD11
:104D68002120114CA36A590304D5114815493CF078
:104D780022FD2220A36A9A0304D50D4812493CF06B
:104D88001AFD2320084CA36ADB0304D508480F4901
:104D98003CF011FD2420A36A6FEA03436FEA134332
:104DA800A36210BD1D20C3E700ED00E07EEA050008
:104DB800609B050096EA0500A9EA0500C3EA05001C
:104DC800EDEA05000BEB050030EB05004AEB0500AA
:104DD80070B5294C06460D46284829493CF0EBFC9D
:104DE800A36AD9043CD5254826493CF0E4FC1720A1
:104DF800A36A1A0504D5214823493CF0DCFC182095
:104E08001D4CA36A9B0512D51C4820493CF0D3FCD5
:104E1800A36BA26A100409D501211D4A17483CF06A
:104E280007F81EB1A36A23F40043A3621920124CA9
:104E3800A36A590504D5114816493CF0BCFC1A2050
:104E4800A36ADA050ED50D4813493CF0B4FC1B20C3
:104E5800094A936A43F47F43936200232B7070BD21
:104E68001620C5E7A36A9B04F2D504480B493CF019
:104E7800A2FC1C20ECE700BF00ED00E0609B0500F1
:104E880075EB05008BEB05000FE905009CEB0500B1
:104E9800B5EB0500CAEB0500E5EB05006FE9050079
:104EA800F0B58BB0784B04465868002600AFC0F3C5
:104EB800080386F31188BFF36F8F02F07F45B5F1C1
:104EC8007F4F07D102F00C05082D12D16F497048A9
:104ED8003CF071FC6F494FF48B636F4A6F483BF0AD
:104EE800FDFB6F483BF0FAFB4FF48B616A483BF0DF
:104EF800EEFB15074CBF0C460126002CEAD0002219
:104F0800FA71DA1E092A00F29D80DFE802F00593A3
:104F180096769B9B9B9B9B9962495D483CF04BFC1A
:104F28000023594DFB71EB6A9A0705D55E4958482D
:104F38003CF041FC002329E0EB6A002B01DA5B49D5
:104F4800F5E7EB6A5B0068D5594951483CF033FCFA
:104F58006B69A26943F480736B61BFF34F8FBFF332
:104F68006F8F6B6932F8022C23F480736B61BFF387
:104F78004F8FBFF36F8F4DF602739A4227D1236884
:104F880001214C4A42483BF053FF2368FA79DAB9C9
:104F980007F1080504F1200C2A46206861680834E6
:104FA80003C264451546F7D17A6A002E66D0C2F36B
:104FB800080121B96FEA52226FEA42227A62184642
:104FC80007F10801FFF790FD2C37BD46F0BDAB6A2D
:104FD800DBB22BB10120F91DFFF718FE0346D5E718
:104FE800AB6A13F47F4F04D00120F91DFFF7F0FEE0
:104FF800F4E7AB6AB3F5803F02D3FFF78BFEEDE72A
:105008002D4940F22A33244A24483BF067FB2B48B9
:105018003BF064FB40F22A3168E7274940F22E331F
:105028001D4A1E483BF05AFB25483BF057FB40F20F
:105038002E315BE70020F91DCEE70020F91DD5E7EA
:10504800204974E7204A6D4610F4F87F8AB01F495A
:1050580018BF11466A46103BD3614FF400731C48D1
:1050680013841C4BC2E9050142F8103F00234FF49A
:1050780011510748FEF756FFAD465BE722F4FF7271
:1050880022F001029AE700BF00ED00E02BEC0500DA
:10509800609B050056EC05009EE905005BD70500FE
:1050A80069EC0500A7EC0500BEEC0500DFEC050087
:1050B800EDEC05000CED05008656060028ED050010
:1050C8004CED05007CED050012EC0500FDEB05003C
:1050D800A0ED050004000001044B5A6942F01002DB
:1050E8005A615A6942F480625A61704700ED00E0E3
:1050F800EFF30880EFF3098101B57246FFF7D0FEA0
:1051080001BD00BF002080F31488BFF36F8F00201B
:1051180080F30A8880F30B8800F08EFF0020114985
:105128000860BFF34F8F104880F3088800F044F8F8
:10513800202080F311880D484FF0AA014FF4006237
:1051480053F026FF09484FF40061401880F309889E
:10515800EFF314800221084380F31488BFF36F8FA4
:1051680000F028F994ED00E09083012050FA002027
:10517800BFF34F8F0549064BCA6802F4E062134338
:10518800CB60BFF34F8F00BFFDE700BF00ED00E02D
:105198000400FA05002318460649D1F89020C2F306
:1051A8000722934200DB7047C1F89830C1F8A0008D
:1051B8000133F6E700ED00E010B572B6002484F381
:1051C8001388FFF7E7FF23464FF0FF300C4A03F13F
:1051D80020010133102B42F82100F8D100234FF0B1
:1051E800FF30074A03F160010133102B42F8210018
:1051F800F8D162B6BFF34F8FBFF36F8F10BD00BFFA
:1052080000E100E0084B9B6883420BD1EFF3058374
:1052180043B1064B5A6842F080525A605A6A22F4E7
:1052280000425A6235F0C2BB14AA002000ED00E02B
:105238006FF00A01094A9368C3F89C100849C3F83B
:1052480098004B6843F080534B60002383F3118828
:10525800BFF36F8F9368D3F89C00704714AA00209F
:1052680000ED00E017498A684FF030001044EFF372
:10527800098C80E8F01F202080F31288BFF36F8F1D
:10528800114F4FF000664A698A603E604FF09404FF
:10529800141920680D4C2060D2F898000023C2F839
:1052A800983080F3118802F1300090E8F01F8CF3F9
:1052B800098802F1000004B53CF085FABDE8044015
:1052C8007047000014AA002004ED00E00C500020F4
:1052D8001EF0040F0CBFEFF30880EFF3098081691B
:1052E80011F8021C0229FFD001B53CF059FA01BDA2
:1052F80040B2002807DB01234109034A00F01F00E0
:10530800834042F82130704700E100E040B20028B5
:105318000CDB01220649430900F01F0082402033BC
:1053280041F82320BFF34F8FBFF36F8F704700BF43
:1053380000E100E0054B420953F82220012300F068
:105348001F0003FA00F01040704700BF00E100E0C2
:1053580038B54B1C072B04460D460FD95823104A65
:10536800104911483BF0BAF929461048072322464C
:105378003BF0B4F958210A483BF0A9F940B200289B
:10538800ACBF00F160400A4A4FEA4313DBB2ABBF3F
:1053980000F5614000F00F0080F80033135438BD69
:1053A800B3ED0500EAED05005BD7050005EE050045
:1053B80014ED00E00B4A08B50B4B22F07F029A600F
:1053C800BFF34F8FBFF36F8FD3F8882022F470029A
:1053D800C3F8882032F03EF935F062FC00F07AF824
:1053E80032F086F90000000000ED00E042F8203CB1
:1053F800009B0B4942F81C3C019B21F0010142F83B
:10540800183C029B42F8081C42F8143C4FF0807389
:1054180042F8043C0023203A0265C0F898307047EF
:10542800052200000B4BD0F8944098600A4B1C6092
:10543800D0F8843083F30B88104681F30988002163
:1054480063B681F31188BFF36F8F00220023FCF746
:10545800D5FE00BF14AA00200C50002001491022DC
:105468000A60704710ED00E072B6404080F3118882
:10547800BFF36F8F01B500F077FC00280AD0BFF3A7
:105488004F8F30BF00BF00BF00BF00BF00BF00BFCD
:1054980000BF00BFBDE8014062B6BFF36F8F704721
:1054A80072B6494081F3118801B500F05DFC00280F
:1054B8000AD0BFF34F8F20BF00BF00BF00BF00BF9F
:1054C80000BF00BF00BF00BFBDE8014080F31188E6
:1054D80062B67047002320210348C2180133452BC8
:1054E80082F80013F9D1704700E100E001B5EFF34D
:1054F8000580A0F110004FEAC0000449014409C921
:105508009847BDE80140024908470000E8970500B0
:10551800F94B00001FB5094C094A234601210948E7
:1055280000F00AF900230393074B0121E41A01A8AC
:105538000193029400F024F904B010BD0000072084
:1055480000000020AC9F05009014002010B50C7AD4
:105558000B6804F01F0223F01F031A43CB68640989
:1055680023F01F03054943EA440343F00103C1F84C
:105578009800C1F89C20C1F8A03010BD00ED00E0F3
:10558800072810B508D901210346054A05483BF00C
:105598004FFC6FF0150010BDFFF7D8FFFBE700BF09
:1055A80049EE0500409B05002DE9F04F8946144659
:1055B80006464FF00008514D85B0C84527DAD6F8A1
:1055C80004A0BAF1000F44D0BAF11F0F17D91AF08E
:1055D8001F0F14D1D6F800B01BF01F0F0FD158467B
:1055E8003CF0F6F807460AEB0B0001383CF0F0F8FF
:1055F800874210D06FF01507414A3B4601E0434609
:10560800404A012140483BF013FC6FF01504204646
:1056180005B0BDE8F08F17F1160FEDD0BC42EBDDF9
:10562800C5F89870D5F89C10C5F89870D5F8A030D2
:1056380021F01F0143F01F0BD6E900321A449942AA
:1056480002F1FF3A1DD1D34507D13146F8B23CF0FB
:10565800C8F808F101080C36AFE73146C5F898706C
:10566800D5F89C3022F01F0203F01F031343C5F83E
:105678009C30E0B23CF0B5F810F1160FC5D0441CD0
:10568800E7E7C5F89870D5F8A020013B23F01F0381
:1056980002F01F021343D3453146E0B2C5F8A030EB
:1056A800E8D03CF09EF810F1160FAED0C5F898700F
:1056B800D5F89C209DF808300BF1FF3B62F30403FA
:1056C8008DF80830D5F8A0309DF808205B0863F302
:1056D80047128DF80820D6E900321344009323F0CE
:1056E8001F035B44A3EB0A03013023F01F03694641
:1056F800C0B20393FFF744FFBEE700BF00ED00E030
:1057080092EE05006FEE0500409B05000522044B54
:10571800C3F89420BFF34F8FBFF36F8F704700BF5C
:1057280000ED00E0BFF35F8F0022024BC3F8942026
:10573800704700BF00ED00E038B50C4D0C462A78E4
:10574800FFF732FF287016300FD140F26D13084A68
:10575800084909483AF0C2FF214608483AF0BEFF16
:1057680040F26D1102483AF0B2FF38BD57C500202B
:10577800B5EE0500865606005BD70500E4EE050089
:105788002DE9F74F314E894605464FF00008B346DC
:105798002F4FC84502DB03B0BDE8F08FD5F804A051
:1057A800BAF1000F4CD02968084601913CF010F876
:1057B800019904460AEB010001383CF009F88442DB
:1057C8004FF01402234B15D002FB08F36FF01502BB
:1057D8004BF8032040F27D131F4A204920483AF035
:1057E8007DFF49461F483AF079FF40F27D111A487B
:1057F8003AF06DFF14F1160F3460EBD01978A1421E
:10580800E8DD02FB08B0C7F89840C7F89840D7F819
:105818009C4000F10801007B64F304000871D7F88C
:10582800A0000C79400860F347140C71D7F89C105D
:1058380021F01F017160D7F8A01021F01F0131611C
:1058480008F1010814360C35A3E700BF10500020FA
:1058580000ED00E057C50020B5EE050086560600AD
:105868005BD7050010EF0500F0B5584D87B02C68E0
:10587800082C10D94FF4D273554A564956483AF075
:105888002DFF2146082255483AF028FF4FF4D271DF
:105898004F483AF01CFF0020FFF744FF504B514A95
:1058A800C3F8C02084421FD14F4D01A82C70FEF7C9
:1058B800A1FE002406464D4FA6421CD1FFF726FF45
:1058C800474BD3F89030C3F30723082B7AD04849C5
:1058D80040F213233E4A40483AF000FF45483AF068
:1058E800FDFE40F21321D3E7696801EB0011FFF7D1
:1058F8002DFE0130D6E7019A210102EB0413D3F8FB
:105908000CC00CEA0700B0F5001F1FD0B0F5800FDF
:1059180039D0B0F5801F43D1586852589B68CDE9FB
:1059280002022122013B20F01F010B4423F01F0338
:105938008DF810200593287802A9FFF721FE00288A
:1059480033DB2B78013401332B70B5E75868525894
:105958009B68CDE902024122013B20F01F010B4464
:1059680023F01F031CF0010F8DF810200593E2D0DF
:1059780021497023164A18483AF0B0FE1F483AF0F9
:10598800ADFE702184E758689B685258013B20F0AF
:105998001F010B44CDE9020223F01F030622C7E7CB
:1059A8000121174A17483BF03AFA0A494FF4E773BE
:1059B800074A09483AF092FE13483AF08FFE4FF42E
:1059C800E77165E7002007B0F0BD00BFB89F05008C
:1059D800B5EE0500865606005BD705003FEF0500CB
:1059E80000ED00E0AAFF440057C500200000F0FFCA
:1059F80014F0050064F0050073EF050099EF050049
:105A0800C8EF0500409B0500EAEF050008B5024B0A
:105A18001B689847002008BD24500020034B044A07
:105A28001860937843F00203937070472450002065
:105A380080050020F0B587B007460E4614460021C1
:105A4800102268461D4653F0D7FD02238DF8023018
:105A5800054B2A4621466846CDE90476019338F07D
:105A6800C5FF07B0F0BD00BF1D18040008B5044805
:105A78003AF0CDFB404080F311884FF0020002DF7E
:105A880094F0050008B50649064821F00701C1F160
:105A9800005202F5E022FCF7A5FC002008BD00BF7B
:105AA800B70803202850002008B54FF0FF324FF008
:105AB800FF33074832F056FC48B1064906488D23A3
:105AC800064A3AF00BFE8D2104483AF000FE08BD64
